:020000040800F2
:10000000B0370020C9010008D50A0008C10900085E
:100010005D0A0008B1050008515900080000000001
:100020000000000000000000000000005D57000814
:100030001108000800000000CB020008615700080A
:10004000DF010008DF010008DF010008DF01000810
:10005000DF010008DF010008DF010008DF01000800
:10006000DF010008DF010008DF010008DF010008F0
:10007000DF010008DF010008DF010008DF010008E0
:10008000DF010008DF010008DF010008DF010008D0
:10009000DF010008DF010008DF010008DF010008C0
:1000A000DF010008DF010008DF010008DF010008B0
:1000B000DF010008DF010008DF010008DF010008A0
:1000C000DF010008DF010008DF010008DF01000890
:1000D000DF010008A1570008DF010008DF01000868
:1000E000DF010008DF010008DF01000800F002F86E
:1000F00000F05AF80AA090E8000C82448344AAF168
:100100000107DA4501D100F04FF8AFF2090EBAE865
:100110000F0013F0010F18BFFB1A43F0010318473B
:10012000045B0000245B00000A444FF0000C10F850
:10013000013B13F0070408BF10F8014B1D1108BF65
:1001400010F8015B641E05D010F8016B641E01F805
:10015000016BF9D113F0080F1EBF10F8014BAD1C55
:100160000C1B09D16D1E58BF01F801CBFAD505E073
:1001700014F8016B01F8016B6D1EF9D59142D6D3CD
:10018000704700000023002400250026103A28BFF5
:1001900078C1FBD8520728BF30C148BF0B607047F9
:1001A0001FB51FBD10B510BD00F047F81146FFF791
:1001B000F7FF05F0FBFB00F065F803B4FFF7F2FF73
:1001C00003BC00F069F8000008480047FEE7FEE7BE
:1001D000FEE7FEE7FEE7FEE7FEE7FEE7FEE7FEE7F7
:1001E00003480449044A054B70470000ED0000082D
:1001F000B02E0020B0370020B02F0020B02F0020FC
:1002000072B6704762B67047EFF3108072B67047EF
:1002100080F31088704730BF704720BF7047B0FA36
:1002200080F0704790FAA0F0B0FA80F0704790FA32
:10023000A0F07047704770477047754600F028F887
:10024000AE4605006946534620F00700854618B0C3
:1002500020B5FFF7C5FFBDE820404FF000064FF086
:1002600000074FF000084FF0000B21F00701AC46EB
:10027000ACE8C009ACE8C009ACE8C009ACE8C0090A
:100280008D4670470446AFF300802046FFF795FF88
:10029000004870474C2E002001491820ABBEFEE7F5
:1002A000260002007047000018484FF0FF0101705F
:1002B000002080F309881648016881F308881548F2
:1002C0004FF08051016062B6FEE772B6EFF309802D
:1002D00028B1203880E8F00F0F490968086000B5A0
:1002E0000E4880475DF804EB0D480E490A7802700D
:1002F00009480D490A680260106890E8F00F203044
:1003000080F309884EF0040E62B6704722ED00E0DB
:100310006800002004ED00E038010020ED21000815
:10032000C6000020C70000203C01002000B58BB0B3
:100330000AA8032100220592CDE906210890104663
:1003400080210C22074BCDE90132CDE903100420B6
:100350000023054A05A10090074801F067FA0BB099
:1003600000BD0000840900202D0A00084C454420EF
:100370005461736B00000000BC08002000B58BB016
:100380000AA8032100220592CDE906210890104613
:1003900080210C22074BCDE90132CDE90310072063
:1003A0000023054A05A10090074801F03FFA0BB071
:1003B00000BD00004C0C00204F590008555341521D
:1003C00054205461736B0000840B002000B58BB087
:1003D0000AA8032100220592CDE9062108901046C3
:1003E00080210C22074BCDE90132CDE90310062014
:1003F0000023054A05A10090074801F017FA0BB049
:1004000000BD0000140F0020050E00084F4C4544AD
:10041000205461736B0000004C0E002008B56B4641
:10042000012202A1044800F0D1FF08BD757361727A
:1004300074315F73656D000010140020F8B5074635
:10044000002600F099F800F0B5F800F08DF80446A9
:1004500042480068B4FBF0F5284602F007F9684608
:1004600001F05AF900F014F96A460121084600F03B
:1004700027FF00F079F8044638480068B4FBF0F52F
:10048000284602F0F3F8684601F046F900F000F95A
:1004900000BF00BF00BFFFF7B7FE064600BF00F079
:1004A00023F900BF2E480078401C2D4908700846EB
:1004B0000078012801D103F053FA00BF00F02EF9B3
:1004C00000BF3046FFF7A4FE00BF00BF00BF00F032
:1004D000DFF8FFF7A3FFFFF729FFFFF74FFFFFF755
:1004E00075FF00BF00BF00BFFFF78EFE064600BFCE
:1004F00000F0FAF800BF1A480078401E184908704A
:1005000008460078D0B903F039FA16480088002868
:100510000BDD00BF00F002F900BF3046FFF778FEA8
:1005200000BF00BF03F0EEF911E000BF00F0F6F8E5
:1005300000BF3046FFF76CFE00BF08E000BF00F0D0
:10054000EDF800BF3046FFF763FE00BF00BF00BFFD
:100550006946002001F0C0FAF8BD0000745A000896
:10056000E0000020A400002000B585B0684605F03A
:100570008BF8019805B000BD08B50121482005F0B1
:1005800073F82020ADF8000010208DF80300032040
:100590008DF802006946044800F03BF969460348BB
:1005A00000F037F908BD0000000C014000180140C0
:1005B00000BFFEE710B500F0FBF800F003F800F014
:1005C000F3F810BD70B500260020184908801849BE
:1005D00008801849086018490860184908601849D7
:1005E000086018490860002400BFFFF70DFE0646AA
:1005F00000BF00250BE000201049086000F074F8EF
:1006000000F08CF80D4800680444681C85B2002D89
:10061000F1D00C48046000200849086008490860CF
:1006200000BF3046FFF7F4FD00BF70BD5000002052
:1006300052000020540000205800002060000020DC
:10064000640000205C00002001460846044A12684D
:10065000904203D9024A1268801A00E000207047D5
:100660005C00002070B5002500BFFFF7CDFD0546FA
:1006700000BF0648046800BF2846FFF7C9FD00BF59
:100680002046FFF7E1FF0646304670BD60000020BF
:1006900070B50025FFF7E6FF044600BFFFF7B4FD85
:1006A000054600BF00200449086000BF2846FFF748
:1006B000AFFD00BF204670BD6000002070B5002572
:1006C00000BFFFF7A1FD054600BF0648046800BF54
:1006D0002846FFF79DFD00BF2046FFF7B5FF064601
:1006E000304670BD6400002010B509480088401CE9
:1006F000074908800748008818B900F083F80649C0
:10070000086004480088401C0249088010BD0000B1
:1007100050000020520000205400002010B50F4867
:100720000088401E0D49088008460088A0B900F0E6
:1007300069F80B490860084600680A490968441AC4
:1007400009480068A04201D20748046007480068D1
:10075000A04201D20548046010BD000052000020F4
:100760005800002054000020600000206400002099
:1007700010B5002400BF00BFFFF746FD044600BFD0
:10078000FFF7B2FF00BF1021064800F069F900BF73
:10079000FFF7C4FF00BF2046FFF73AFD00BF00BFD0
:1007A00010BD00003814002010B5FFF7E1FF10BDA8
:1007B00010B500200249086000F00AF810BD0000E2
:1007C0004C00002001490860704700004C000020E8
:1007D00010B50A48006840F08070084908600020A1
:1007E000074948600846006840F001000860FFF7CC
:1007F000BBFE04462046FFF7E5FF10BDFCED00E020
:10080000001000E00148406870470000001000E060
:1008100070472DE9F0410246002500260020002304
:100820000024002791F803C00CF00F0591F803C0D5
:100830000CF0100CBCF1000F03D091F802C04CEA90
:10084000050591F800C0BCF1000F31D014680020FC
:100850002BE04FF0010C0CFA00F3B1F800C00CEAE9
:1008600003069E4220D183004FF00F0C0CFA03F7D1
:10087000BC4305FA03FC4CEA040491F803C0BCF144
:10088000280F06D14FF0010C0CFA00FCC2F814C07E
:100890000AE091F803C0BCF1480F05D14FF0010CFC
:1008A0000CFA00FCC2F810C0401C0828D1D3146018
:1008B000B1F800C0BCF1FF0F34DD546800202EE019
:1008C00000F1080C4FF0010808FA0CF3B1F800C071
:1008D0000CEA03069E4221D183004FF00F0C0CFA64
:1008E00003F7BC4305FA03FC4CEA040491F803C087
:1008F000BCF1280F05D100F1080C08FA0CF8C2F879
:10090000148091F803C0BCF1480F07D100F1080C26
:100910004FF0010808FA0CF8C2F81080401C0828B3
:10092000CED35460BDE8F081F0B50A460023002420
:100930000021002500F00046B6F1004F02D11D4E07
:10094000F16901E01B4E7168C0F3034583B200F406
:100950004016B6F5401F08D121F07061154E76683B
:1009600026F07066134F7E6012E000F48016B6F534
:10097000801F06D1032606FA05F4A14341F07061F9
:1009800006E0460D360103FA06F6B14341F0706108
:1009900022B1460D360103FA06F6314300F0004657
:1009A000B6F1004F02D1034EF16101E0014E7160DA
:1009B000F0BD0000000001404161704701617047D7
:1009C00000BFFEE708B50121052004F04DFE01211E
:1009D0000B48FFF7A9FF48F21F00ADF800001020F8
:1009E0008DF8030003208DF8020069460548FFF7E3
:1009F00010FF48F21F010348FFF7E0FF08BD0000A9
:100A0000000230000008014010B504462CB14FF43C
:100A100000410548FFF7D0FF04E04FF400410248D1
:100A2000FFF7CCFF10BD00000008014008B500BF73
:100A3000FFF7C8FF00BF0120FFF7E6FF6A4600216D
:100A40004FF47A7001F024FC0020FFF7DDFF6A46C6
:100A500000214FF47A7001F01BFCECE700BFFEE7C9
:100A600030B505460C4622460021284600F001F824
:100A700030BD2DE9F04103460C4617460FB9BDE8DD
:100A8000F08103B9FBE70025002202E02D02254397
:100A9000521C042AFAD3384603F0030C1946BCF161
:100AA000000F08D0624603E001F8014B401E521CC3
:100AB00008B1042AF8D30E4601E020C6001F04281E
:100AC000FBD2314602E001F8014B401E0028FAD16A
:100AD00000BFD4E77047000002490143024A116099
:100AE000704700000000FA050CED00E070B500242E
:100AF0000CE0002506E00020074901EBC501085580
:100B0000681CC5B2802DF6DB601CC4B2082CF0DB7B
:100B100000F052F970BD00004001002010B50446FD
:100B20001CB90021A62000F08BF9012C03D1002173
:100B3000A72000F085F910BD10B500218D2000F030
:100B40007FF90021142000F07BF90021AF2000F094
:100B500077F910BD10B504463CB90021C82000F05B
:100B60006FF90021A12000F06BF9012C07D10021C1
:100B7000C02000F065F90021A02000F061F910BD4F
:100B80002DE9F84F05460E4617469846002D0ADB1C
:100B9000802F08DC002E06DBB8F1400F03DCBD42DD
:100BA00001DC464501DDBDE8F88FBD420DD10024D2
:100BB00006E03019C1B2284600F03AF8601CC4B211
:100BC000A8EB0600A042F4DC30E046450CD100243E
:100BD00006E02919C8B2314600F02AF8601CC4B2F8
:100BE000781BA042F5DC21E0A8EB060000F0FF0A2C
:100BF000781B00F0FF0B0AEB8A00400090FBFBF033
:100C000000F0FF0900240EE004FB09F00A2190FB2C
:100C1000F1F03044C0B229190090C8B2009900F038
:100C200007F8601CC4B2781BA042EDDC00BFBAE735
:100C300070B50A46CE1701EB5676C6F3C703CE173A
:100C400001EB5676F610A1EBC606F4B20122A240E3
:100C5000D5B2054A02EBC002D25C2A43024E06EB33
:100C6000C006F25470BD00004001002008B501210B
:100C7000052004F0F9FC01214D48FFF755FE48F22C
:100C80001F00ADF8000010208DF8030003208DF840
:100C9000020069464748FFF7BCFD48F21F0145487E
:100CA000FFF78CFE04214348FFF788FE642004F020
:100CB00051FE04213F48FFF77FFEC82004F04AFEA2
:100CC00004213C48FFF77AFE0021AE2000F0B8F87E
:100CD0000021084600F0B4F80021102000F0B0F820
:100CE0000021402000F0ACF80021812000F0A8F89D
:100CF0000021CF2000F0A4F80021A12000F0A0F8EE
:100D00000021C82000F09CF80021A62000F098F8EF
:100D10000021A82000F094F800213F2000F090F876
:100D20000021D32000F08CF80021084600F088F85C
:100D30000021D52000F084F80021802000F080F808
:100D40000021D92000F07CF80021F12000F078F893
:100D50000021DA2000F074F80021122000F070F871
:100D60000021DB2000F06CF80021402000F068F842
:100D70000021202000F064F80021022000F060F83B
:100D800000218D2000F05CF80021142000F058F8BC
:100D90000021A42000F054F80021A62000F050F813
:100DA0000021AF2000F04CF8FFF7A0FE08BD0000C6
:100DB000000230000008014070B500241CE004F17E
:100DC000B001C8B2002100F03BF80021084600F055
:100DD00037F80021102000F033F8002508E008491A
:100DE00001EBC501085D012100F02AF8681CC5B2BD
:100DF000802DF4DB601CC4B2082CE0DB70BD000069
:100E00004001002008B500BF0020FFF787FE00204A
:100E1000FFF7A0FEFFF72AFF00BFFFF767FEFFF70F
:100E20008BFE32231A4600210846FFF7A9FEFFF782
:100E3000C3FF6946014801F0D3FAEEE7BC08002081
:100E400070B504460E4626B108211848FFF7B6FDD6
:100E500003E008211548FFF7AFFD10211348FFF705
:100E6000ABFD002517E001211048FFF7A5FD04F0B8
:100E7000800020B102210D48FFF7A0FD03E0022110
:100E80000A48FFF799FD01210848FFF797FD600622
:100E9000040E681CC5B2082DE5DB10210348FFF7DE
:100EA0008DFD08210148FFF789FD70BD0008014054
:100EB0007047000010B50348006810B10148006891
:100EC000804710BD7C00002070B5044600F0C2F8D9
:100ED0000020484908704849087048490870484946
:100EE00008604849086048490870484908704849FE
:100EF00008704849086048490860484908604849FE
:100F00000870484800680A21B0FBF1F046490860C3
:100F10004648006858B14648056845B143480668E8
:100F200003E0761E002028602D1D002EF9D1002040
:100F300040490860404908604049086040490860ED
:100F400040490860404908604049086040490870CD
:100F500002F022FB02F020FC204601F079FC208800
:100F600000B170BD204602F093F8208800B1F8E788
:100F7000204602F099F8208800B1F2E7204602F0FE
:100F80007DF9208800B1ECE7204602F035FB20888F
:100F900000B1E6E7204602F09DFD208800B1E0E7C1
:100FA000204603F007F9208800B1DAE7204601F077
:100FB000DBFF208800B1D4E7204601F0E5FD208862
:100FC00000B1CEE7204604F05DF9208800B1C8E703
:100FD000204603F033F8208800B1C2E7204604F031
:100FE000ADF9208800B1BCE701F058FBFFF760FFC6
:100FF00000BFB6E79000002098000020E00000202D
:10100000380100203C010020C6000020C70000205D
:10101000C8000020D4000020D8000020DC00002000
:10102000E8000020745A0008E4000020445A000838
:10103000405A000870000020740000207800002052
:101040007C00002080000020840000208800002018
:10105000160100200A4A1168002002E0002204C1A3
:10106000401C084A12689042F8D3054A1268054BA2
:101070001B6802EB8302121F034B1A6070470000CB
:10108000405A0008445A00086800002008480078C8
:10109000012800D0704707480078FA2800DBF9E7FC
:1010A00004480078401C0349087000BFF2E70000C4
:1010B000980000209000002010B500242E480078F1
:1010C000012800D010BD00BFFFF79EF8044600BF06
:1010D0002A48007828B900BF2046FFF799F800BFDA
:1010E000F0E726480078401E24490870084600783A
:1010F000002805DD00BF2046FFF78AF800BFE1E7C2
:101100001F480078002805DD00BF2046FFF780F863
:1011100000BFD7E702F02CFA1A4908700846007899
:1011200000EB4000184951F82000184908600846B3
:10113000006817490968884205D100BF2046FFF7BB
:1011400067F800BFBEE711480068D0F89000401C67
:101150000E490968C1F890000E480068401C0D490E
:1011600008604FF080500C49086000BF2046FFF730
:101170004FF800BF00BFA5E79800002090000020B6
:10118000E0000020C7000020742A00203C0100205D
:10119000380100200C01002004ED00E010B500240F
:1011A00020480078002800DD10BD1F480078002886
:1011B00000DDF9E700BFFFF727F8044600BF02F0A3
:1011C000D7F91A4908700846007800EB4000184922
:1011D00051F8200017490860084600681649096858
:1011E000884205D100BF2046FFF712F800BFDBE7B9
:1011F00010480068D0F89000401C0E490968C1F8FA
:1012000090000E480068401C0C4908604FF0805068
:101210000B49086000BF2046FEF7FAFF00BF00BF81
:10122000C2E7000090000020E0000020C70000207E
:10123000742A00203C010020380100200C0100200D
:1012400004ED00E070B5044600251A480078002837
:1012500003DD46F66250208070BD174800780128F3
:1012600003D045F689602080F6E714480078FA2814
:1012700003DB45F209202080EEE700BF00BFFEF748
:10128000C3FF054600BFFFF72FFA00BF0B480078E9
:10129000401C0A49087002F063FB00BFFFF73EFAEA
:1012A00000BF2846FEF7B4FF00BF00BF002020802B
:1012B00000BFD1E79000002098000020E00000204F
:1012C0002DE9F04105460C461646002700BF00BF39
:1012D000FEF79AFF074600BFFFF706FA00BF012D91
:1012E00003D000200E49087002E001200C4908706C
:1012F00014B10C48046006E00B4800680A21B0FBFA
:10130000F1F00849086000BFFFF708FA00BF38464F
:10131000FEF77EFF00BF00BF00203080BDE8F081F7
:10132000E8000020E4000020745A000870B504466C
:10133000002523480078002803DD46F6655020800C
:1013400070BD20480078012803D045F689602080D0
:10135000F6E71D48007818B946F664502080EFE79C
:1013600000BF00BFFEF750FF054600BFFFF7BCF906
:1013700000BF15480078401E1349087008460078E1
:1013800000280CDD00BFFFF7C9F900BF2846FEF7B3
:101390003FFF00BF00BF46F663502080D0E702F059
:1013A000EDFA00BFFFF7BAF900BF2846FEF730FF9D
:1013B00000BF00BFFFF7F2FE0020208000BFBFE7A4
:1013C0009000002098000020E00000202DE9F0416E
:1013D00004460E4617461D464FF000083048007878
:1013E000002804DD42F6E1602880BDE8F0811CB9E8
:1013F00045F6C3502880F8E700BF00BF00BFFEF7E6
:1014000003FF804600BFFFF76FF900BF2548007853
:10141000401C2449087008460078012801D102F0D8
:101420009FFA00BFFFF77AF900BF4046FEF7F0FED3
:1014300000BF00BF00BF1C48206027620020606220
:10144000666004F1080001F0ADFF204602F02AFBBF
:1014500016480088401C1549088000BF00BF00BF27
:10146000FEF7D2FE804600BFFFF73EF900BF0D48F1
:101470000078401E0B4908700846007808B902F051
:101480007DFA00BFFFF74AF900BF4046FEF7C0FEF5
:1014900000BF00BF00BF0020288000BFA5E70000FC
:1014A00090000020E000002053454D41F000002056
:1014B0002DE9FF4105460F46144635B945F6C350A0
:1014C0002080002004B0BDE8F0814FB1B7F5007F67
:1014D00007D0B7F5004F05D0B7F5024F04D102E0B1
:1014E00000BF00BF00BF04E045F62560208000205B
:1014F000E8E700BF12492868884204D045F6C45086
:1015000020800020DEE7FFF77DF906460D480078D1
:1015100000280CDD0020034602462946CDE901766D
:1015200003940090064801F067FB0020CAE72346B9
:1015300032463946284602F0D9FA80464046C1E78D
:1015400053454D419000002010B5044612480078E4
:10155000E8B902F00DF81149087008460078104902
:1015600008700E48007800EB40000E4951F820004A
:101570000D490860084600680C49086001200649CA
:101580000870FEF791FE43F69920208002E045F6B0
:101590008A60208010BD000098000020C700002055
:1015A000C6000020742A00203C01002038010020E1
:1015B0002DE9F04107464FF0000800BF00BFFEF7DD
:1015C00023FE804600BFFFF78FF800BF0020474989
:1015D00008604749088047490880474908604749EB
:1015E000086047490860474908604749086047491B
:1015F000088100BFFFF792F800BF4046FEF708FEE3
:1016000000BF00BF00BF00BFFEF7FEFD804600BF69
:10161000FFF76AF800BF3E48046800BFFFF77EF896
:1016200000BF4046FEF7F4FD00BF00BF26E000BF4C
:1016300000BFFEF7E9FD804600BFFFF755F800BF89
:1016400000207834E063206420602063A061A082E1
:10165000E0826062A062FFF7D5F82062783C04F176
:1016600064060020B081D4F8C04000BFFFF756F8F0
:1016700000BF4046FEF7CCFD00BF00BF002CD6D116
:1016800000BF00BFFEF7C0FD804600BFFFF72CF88B
:1016900000BF2048056800BFFFF740F800BF404684
:1016A000FEF7B6FD00BF00BF16E000BF00BFFEF7AB
:1016B000ABFD804600BFFFF717F800BF05F120061D
:1016C0000020B081AD6900BFFFF728F800BF404699
:1016D000FEF79EFD00BF00BF002DE6D103F09AFC8F
:1016E00003F028FF00203880BDE8F081AC00002026
:1016F000A6000020F6000020080100201C010020A8
:101700002801002094000020D8000020682A002032
:1017100010010020CC000020F8B5044600266946E0
:10172000364800F033FDBDF8000018B1BDF80000E8
:101730002080F8BD6A460021022000F0A9FDBDF816
:10174000000018B1BDF800002080F2E700BF00BF24
:10175000FEF75AFD064600BFFEF7C6FF00BF002099
:101760002749086000BFFEF7D9FF00BF3046FEF7EB
:101770004FFD00BF00BF00252248006822490968CC
:10178000884205D91F4800681F490968B0FBF1F578
:1017900025B91C4800680A21B0FBF1F56A46002112
:1017A000284600F075FD6946144800F0A5FABDF81A
:1017B000000018B1BDF800002080BAE700BF00BFEC
:1017C000FEF722FD064600BFFEF78EFF00BF002099
:1017D0000E4908600A4800680D49086001200D495B
:1017E000087000BFFEF79AFF00BF3046FEF710FDFD
:1017F00000BF00BF0020208000BF9AE7842D00209A
:10180000F8000020745A00085C5A00080801002003
:10181000FC0000200401002010B50348006810B14E
:1018200001480068804710BD800000202DE9FF4F6F
:1018300087B004469046DDE91BA5DDE91496179FA5
:101840000020039095480078002805DD47F24A10F3
:1018500028800BB0BDE8F08F1CB947F2AD1028808E
:10186000F7E7B8F1000F03D147F24F102880F0E7F7
:101870001EB946F62F602880EBE78948006887424A
:1018800003D246F630602880E3E71698B84203D3C7
:1018900046F631602880DCE7B9F1200F03D346F229
:1018A00073202880D5E7B9F1000F06D17D48844226
:1018B00003D046F273202880CBE7B9F11F0F06D181
:1018C0007948844203D046F273202880C1E720463D
:1018D00002F080FC002028800AF0010090B10AF09C
:1018E000020078B105960020069008E000210598D6
:1018F00001600598001D05900698401C069006980A
:10190000B842F3D3169806EB80000490CDE9007A34
:1019100032464046049B0A9900F0D8FB0590C4F873
:1019200028800A98E0620898206284F83790059829
:1019300020600498A06019986065199818B95B48F0
:101940000068A06501E01998A0651A986060666259
:10195000A763A4F83CA04FF0000B08E0002104F1BD
:101960007C0040F82B100BF1010000F0FF0BBBF1E5
:10197000000FF3D004F16400189901F0F5FB204644
:1019800000F09EF800BF00BF00BFFEF73DFC0390D3
:1019900000BFFEF7A9FE00BF45480078401C44493F
:1019A000087008460078012801D101F0D9FF00BF76
:1019B000FEF7B4FE00BF0398FEF72AFC00BF00BF8D
:1019C00000BF94F8370001F0F3FD204601F02CFF32
:1019D000204602F0B5FB37480088401C3549088096
:1019E00035480078012837D000BF00BF00BFFEF7A0
:1019F0000BFC039000BFFEF777FE00BF2C48007879
:101A0000401E2B49087008460078D0B901F0B6FF97
:101A10002A48008800280BDD00BFFEF77FFE00BFCC
:101A20000398FEF7F5FB00BF00BF01F06BFF11E06C
:101A300000BFFEF773FE00BF0398FEF7E9FB00BF8F
:101A400008E000BFFEF76AFE00BF0398FEF7E0FB68
:101A500000BF00BF00BFFCE600BF00BF00BFFEF735
:101A6000D3FB039000BFFEF73FFE00BF1048007895
:101A7000401E0F4908700846007808B901F07EFF43
:101A800000BFFEF74BFE00BF0398FEF7C1FB00BF8F
:101A900000BF00BFFFF782FB00BFDAE69000002026
:101AA000705A0008A0290020D8280020E400002057
:101AB000E00000201401002098000020A400002075
:101AC00010B504460348006818B12046014909686A
:101AD000884710BD7000002070B504460D460026F2
:101AE00078480078002803DD47F24E10288070BD4A
:101AF0007548844203D147F24C102880F7E77348B9
:101B0000844203D147F24D102880F0E79CB900BF12
:101B100000BFFEF779FB064600BFFEF7E5FD00BFFC
:101B20006B48046800BFFEF7F9FD00BF3046FEF7C2
:101B30006FFB00BF00BF00BF00BF00BFFEF764FB2C
:101B4000064600BFFEF7D0FD00BF62480078401C8B
:101B50006049087008460078012801D101F000FFB3
:101B600000BFFEF7DBFD00BF3046FEF751FB00BFB4
:101B700000BF00BF94F8360008282DD2DFE800F03F
:101B800004090E10080A0F11204601F08DFE5EE0D8
:101B90005DE000BF204603F021FA58E000BF00BF1F
:101BA00000BF204603F01AFA94F83400082810D237
:101BB000DFE800F004070508090A0B0600BF00BFB4
:101BC00008E000BF00BF00BF00BF204601F022FCBC
:101BD00000E000BF00BF3AE000BF00BF00BFFEF75B
:101BE00013FB064600BFFEF77FFD00BF39480078B3
:101BF000401E3849087008460078D0B901F0BEFE92
:101C00003548008800280BDD00BFFEF787FD00BFC8
:101C10003046FEF7FDFA00BF00BF01F073FE11E091
:101C200000BFFEF77BFD00BF3046FEF7F1FA00BFB4
:101C300008E000BFFEF772FD00BF3046FEF7E8FA8D
:101C400000BF00BF00BF46F62D6028804FE700BFF1
:101C500004F1640001F066FA204600F041F82046E5
:101C600002F086FA1D480088401E1C490880204664
:101C700002F0B0FAFF2084F8360000BF00BF00BFBA
:101C8000FEF7C2FA064600BFFEF72EFD00BF114860
:101C90000078401E0F4908700846007808B901F026
:101CA0006DFE00BFFEF73AFD00BF3046FEF7B0FA0A
:101CB00000BF00BF00BF00202880FFF76FFA00BF01
:101CC00015E7000090000020D8280020A02900205F
:101CD00038010020E0000020A400002014010020B2
:101CE00010B504460348006818B120460149096848
:101CF000884710BD740000207FB504460D460026BD
:101D000000BF00BFFEF780FA064600BFFEF7ECFCFE
:101D100000BF1CB11748006884420CD100BFFEF719
:101D2000FDFC00BF3046FEF773FA00BF00BF47F26C
:101D3000571028807FBD00BFFEF7F0FC00BF304683
:101D4000FEF766FA00BF00BF0B48007800280BDDE5
:101D5000002000900190034602462146CDE902058D
:101D6000064800F049FFE5E72946204602F0DEFB81
:101D700000BFDFE738010020900000205452455397
:101D800010B504460348006818B1204601490968A7
:101D9000884710BD780000202DE9F04780460E46A8
:101DA00014461D464FF000098C480078002805DDD8
:101DB00046F2AE1028800020BDE8F0871EB1B6F5CF
:101DC000004F02D100E000BF04E045F62560288006
:101DD0000020F1E700BF0CB10020206000BF00BF71
:101DE000FEF712FA814600BFFEF77EFC00BF7C487A
:101DF0000068406CB8B37A480068406C401E78496F
:101E00000968486476480068476C1CB174480068EB
:101E1000006C2060FEF7F6FC71490968096C401AF5
:101E20006F490968C1F8A4006D480068D0F8A8009F
:101E30006B490968D1F8A410884207D26848006845
:101E4000D0F8A40066490968C1F8A80000BFFEF7F1
:101E500065FC00BF4846FEF7DBF900BF00BF00206D
:101E600028803846A8E7FFE706F4004068B100BFC5
:101E7000FEF754FC00BF4846FEF7CAF900BF00BF9A
:101E800046F2B0102880002096E7564800780028D7
:101E90000DDD00BFFEF742FC00BF4846FEF7B8F973
:101EA00000BF00BF46F663502880002084E700BFD3
:101EB0004C480078401C4B490870084600780128BF
:101EC00001D101F04DFD00BFFEF728FC00BF4846E0
:101ED000FEF79EF900BF00BF00BF43460722002166
:101EE000084601F0D7F900BF00BF00BFFEF78CF92C
:101EF000814600BFFEF7F8FB00BF3A480078401E5D
:101F0000384908700846007808B901F037FD00BF6D
:101F1000FEF704FC00BF4846FEF77AF900BF00BF99
:101F200000BFFFF73BF900BF00BFFEF76DF9814628
:101F300000BFFEF7D9FB00BF2948006890F83500C4
:101F400020B1012826D0032834D12CE0FCB124484C
:101F50000068006C2060FEF755FC21490968096C97
:101F6000401A1F490968C1F8A4001D480068D0F84C
:101F7000A8001B490968D1F8A410884207D2184864
:101F80000068D0F8A40016490968C1F8A80000202C
:101F9000288013E01CB112480068006C206046F2F3
:101FA000A91028800AE00CB10020206047F2D92057
:101FB000288003E046F62E60288000BF00BF084856
:101FC0000068476C00BFFEF7A9FB00BF4846FEF75C
:101FD0001FF900BF00BF3846EEE600009000002069
:101FE00038010020E00000202DE9F04705460E46AC
:101FF00017461C464FF0000A32480078002804DDDE
:1020000047F259102080BDE8F0871EB946F2D5206E
:102010002080F8E71FB946F2D5202080F3E700BF03
:1020200000BFFEF7F1F8824600BFFEF75DFB00BF80
:102030000DB925480568286878B900BFFEF76EFB22
:1020400000BF5046FEF7E4F800BF00BF002030603C
:10205000386047F252102080D5E795F83C0000F038
:10206000010078B900BFFEF759FB00BF5046FEF7EC
:10207000CFF800BF00BF00203060386047F2541036
:102080002080C0E700BFFEF749FB00BF5046FEF7C7
:10209000BFF800BF00BF4FF00008D5F8249003E060
:1020A00009F1040908F10108D9F800000028F7D067
:1020B000C6F80080A86BA0EB0800386000202080E4
:1020C00000BFA0E79000002038010020F0B50446D2
:1020D000DDE9055602EB85004FF0807C071F38468E
:1020E000C7F800C0071F38463C60DFF89CC0071FD8
:1020F0003846C7F800C04FF0123C071F3846C7F8F3
:1021000000C04FF0033C071F3846C7F800C04FF02F
:10211000023C071F3846C7F800C0071F38463B601F
:10212000071F384639604FF0113C071F3846C7F883
:1021300000C04FF0103C071F3846C7F800C04FF0F2
:10214000093C071F3846C7F800C04FF0083C071F7E
:102150003846C7F800C04FF0073C071F3846C7F89D
:1021600000C04FF0063C071F3846C7F800C04FF0CC
:10217000053C071F3846C7F800C04FF0043C071F56
:102180003846C7F800C0F0BDA94600087FB505462F
:102190000C461248854203D147F25B1020807FBD78
:1021A0000F48854203D147F25C102080F7E70D48C5
:1021B000007800280BDD00200090019003460246C5
:1021C0002946CDE90204084800F016FDE7E721465C
:1021D000284602F049FD00BFE1E70000D8280020B2
:1021E000A0290020900000205453555370B5244876
:1021F000006810B1224800688047FEF703FB0446E0
:102200002048006820490968884215D01D480068A8
:10221000D0F89800201A1B490968C1F894001948A1
:102220000068D0F89C0017490968D1F89410084458
:1022300014490968C1F89C0013480068C0F8984028
:10224000FEF726FA05460F480068D0F8B400A84209
:1022500003D20C480068C0F8B4500A480068D0F8AF
:10226000B8000A490968884205D20848006805494B
:102270000968C1F8B80000200449086070BD00007A
:1022800084000020380100203C010020DC000020F8
:102290002DE9F04105460E46144600274D480078CA
:1022A000002804DD47F275202080BDE8F0814A480F
:1022B0000078002803DD46F663502080F5E736B14C
:1022C000022E05D0042E0AD0082E09D101E000BF4D
:1022D00000BF1DB947F27E202080E6E704E003E05E
:1022E00045F625602080E0E700BF00BF00BF00BFCB
:1022F000FDF78AFF074600BFFEF7F6F900BF364834
:102300000078401C3449087008460078012801D143
:1023100001F026FB00BFFEF701FA00BF3846FDF7CB
:1023200077FF00BF00BF00BF01202C49096881F87A
:1023300036002346324629462848006802F070FDE0
:102340002088F0B100BF00BF00BFFDF75DFF07466A
:1023500000BFFEF7C9F900BF1F480078401E1E49A4
:1023600008700846007808B901F008FB00BFFEF7C6
:10237000D5F900BF3846FDF74BFF00BF00BF00BFD7
:1023800093E71648006801F08FFA00BF00BF00BF56
:10239000FDF73AFF074600BFFEF7A6F900BF0E485B
:1023A0000078401E0C4908700846007808B901F012
:1023B000E5FA00BFFEF7B2F900BF3846FDF728FF87
:1023C00000BF00BF00BFFEF7E9FE0020208000BF75
:1023D0006BE7000090000020E000002038010020A2
:1023E00070B505460C46002687480078002803DDB6
:1023F00047F27620208070BD1DB947F25110208031
:10240000F9E700BF00BFFDF7FFFE064600BFFEF77D
:102410006BF900BF7D48006885420CD147F251102E
:10242000208000BFFEF77AF900BF3046FDF7F0FECE
:1024300000BF00BFDFE795F83600082879D2DFE853
:1024400000F00411515E6B79B7C400BFFEF766F966
:1024500000BF3046FDF7DCFE00BF00BF47F2511061
:102460002080CCE000BF6A480078401C68490870B2
:1024700008460078012801D101F072FA00BFFEF78A
:102480004DF900BF3046FDF7C3FE00BF00BF00BFDF
:10249000002085F83600284602F0A0FD284601F00D
:1024A0008DF900BF00BF00BFFDF7AEFE064600BFBE
:1024B000FEF71AF900BF56480078401E54490870CC
:1024C0000846007808B901F059FA00BFFEF726F96E
:1024D00000BF3046FDF79CFE00BF00BF00BF0020DC
:1024E00020808CE000BFFEF719F900BF3046FDF7F1
:1024F0008FFE00BF00BF47F2511020807FE000BF79
:10250000FEF70CF900BF3046FDF782FE00BF00BFAA
:1025100047F25110208072E000BFFEF7FFF800BFC5
:102520003046FDF775FE00BF00BF47F25110208016
:1025300065E057E000BF36480078401C3449087019
:1025400008460078012801D101F00AFA00BFFEF721
:10255000E5F800BF3046FDF75BFE00BF00BF00BFDF
:10256000042085F83600284602F038FD00BF00BF81
:1025700000BFFDF749FE064600BFFEF7B5F800BFF5
:1025800023480078401E224908700846007808B9A0
:1025900001F0F4F900BFFEF7C1F800BF3046FDF7C7
:1025A00037FE00BF00BF00BF47F25A10208026E070
:1025B00000BFFEF7B3F800BF3046FDF729FE00BFAD
:1025C00000BF47F25110208019E000BFFEF7A6F8C7
:1025D00000BF3046FDF71CFE00BF00BF47F25110A0
:1025E00020800CE000BFFEF799F800BF3046FDF7F1
:1025F0000FFE00BF00BF46F62D60208000BF00BF69
:10260000FEF7CCFD00BFF6E6900000203801002068
:10261000E000002010B586B000F01EF8FEF7F2F8DA
:10262000044605A800210091CDE901140390074854
:10263000007800EB4000064A02EB800100231A46B6
:10264000044800F0D9FA06B010BD0000C600002012
:10265000742A00205449434B10B50348006810B158
:1026600001480068804710BD8800002001464A1ECE
:102670004FF0E0235A61084A106820F07F4000BF05
:1026800010601A46126942F005021A611A46126970
:1026900042F002021A61704720ED00E0254A264907
:1026A000264A274A2749284A2848294A294A2A4A9D
:1026B0002A4A2B482B482C482C4A2D482D4A2E4874
:1026C0002E4A2F482F4830483048314A314A324A42
:1026D0003248334A334A3448344835483548364816
:1026E00036483748374A384A384A394A39483A48E2
:1026F0003A483B4A3B4A3C4A3C483D483D483E49B3
:102700003E483F4A3F4A404A404A414A414A424A7B
:102710004248434A434A44484448454A454A464851
:10272000464A474A47484848484800BF00BF00BF9C
:1027300070470000B85A0008205C0008B95A000829
:10274000BA5A0008BC5A0008C05A0008C45A000807
:10275000C15A0008EC5A0008ED5A0008EE5A000869
:10276000F05A0008F25A0008F45A0008F65A000815
:10277000F85A0008185B00081A5B00081C5B000888
:102780001E5B0008205B0008225B0008245B000839
:10279000505B0008515B0008525B0008545B000866
:1027A000565B0008575B0008585B00085A5B00083E
:1027B0005C5B00085E5B0008605B0008625B000811
:1027C000645B0008945B0008955B0008965B00085A
:1027D000975B0008985B00089A5B00089C5B000808
:1027E000C45B0008C55B0008C65B0008C75B000847
:1027F000C85B0008CA5B0008CC5B0008D05B00081F
:10280000D15B0008D25B0008D35B0008D45B0008F2
:10281000D55B0008D65B0008D75B0008D85B0008D2
:10282000DA5B0008DB5B0008DC5B0008DE5B0008AD
:10283000E05B0008E15B0008E45B0008185C00084E
:10284000195C00081A5C00081C5C00081E5C00088B
:102850000021034A1160034A118001807047000083
:10286000B0000020B40000202DE9F04F85B00446F0
:10287000894692469B46DDF838800020009000BFD4
:1028800000BFFDF7C1FC009000BFFDF72DFF00BFAA
:10289000BAF1000F0AD0BAF1010F0DD0BAF5004F0E
:1028A00005D06FF40040504460B906E000BF206AD4
:1028B00040EA0900206216E000BF206A20EA090011
:1028C000206210E000BFFDF729FF00BF0098FDF770
:1028D0009FFC00BF00BF45F62560A8F8000000205F
:1028E00005B0BDE8F08F00BFC4F824B004F10800C3
:1028F00001900198008968B900BFFDF70FFF00BF84
:102900000098FDF785FC00BF00BF0020A8F800007C
:10291000206AE5E700BF71480078401C6F490870E5
:1029200008460078012801D101F01AF800BFFDF730
:10293000F5FE00BF0098FDF76BFC00BF00BF00BFB5
:1029400001980768BD6889E07868029095F888006A
:1029500000F00F0003900398012821D002282ED008
:10296000042802D0082836D10EE0206AD5F880105D
:1029700000EA0106D5F88000B04204D15A4631463B
:10298000284600F0AFF863E0206AD5F8801000EA2E
:10299000010626B15A463146284600F0A3F857E012
:1029A000D5F88000216A20EA0106D5F88000B042FF
:1029B00004D15A463146284600F094F848E0D5F84C
:1029C0008000216A20EA010626B15A46314628468F
:1029D00000F088F83CE000BF00BF00BFFDF714FC2A
:1029E000009000BFFDF780FE00BF3C480078401E0D
:1029F0003A49087008460078D0B900F0BFFF38485F
:102A0000008800280BDD00BFFDF788FE00BF00989E
:102A1000FDF7FEFB00BF00BF00F074FF11E000BF38
:102A2000FDF77CFE00BF0098FDF7F2FB00BF08E059
:102A300000BFFDF773FE00BF0098FDF7E9FB00BF84
:102A400000BF00BF43F6FF20A8F80000002047E7C2
:102A500000BF029F0FB1BD6800E00025002D7FF48C
:102A600073AF00BF00BF00BFFDF7CEFB009000BFFB
:102A7000FDF73AFE00BF19480078401E174908705C
:102A80000846007808B900F079FF00BFFDF746FE60
:102A900000BF0098FDF7BCFB00BF00BF00BF0AF4F9
:102AA000004008B9FEF77AFB00BF00BFFDF7ACFBA2
:102AB000009000BFFDF718FE00BF206A049000BF21
:102AC000FDF72CFE00BF0098FDF7A2FB00BF00BF82
:102AD0000020A8F80000049802E70000E0000020B1
:102AE000A400002070B504460E4615463434266511
:102AF000002060702070E560A078343C082816D271
:102B0000DFE800F0040508090706101100BF00BF48
:102B100000BF0DE000BF204601F0FAFC002084F861
:102B2000360005E000BF042084F8360000E000BF56
:102B300000BF204600F06EFC70BD0000002400BF06
:102B40001DE000BF00BFFDF75FFB044600BFFDF7BF
:102B5000CBFD00BF0A480068401C094908600948CD
:102B60000068401C0749086000BFFDF7D7FD00BFA3
:102B70002046FDF74DFB00BF00BFFEF79BF9E0E7E5
:102B80008C000020F800002010B58AB00446002018
:102B90000E4908600B2000210591CDE9070406913C
:102BA00008460B4909680B4A12680B4B1B68CDE9B4
:102BB0000132CDE903101F200023084A08A100902C
:102BC0000C48FEF733FE0AB010BD00008C00002058
:102BD0001C5A0008185A0008145A00083D2B000817
:102BE00075432F4F532D4949492049646C65205442
:102BF00061736B00D82800202DE9F84F04460D467C
:102C000016461F46DDE90BABDDF82890DDF8348071
:102C10000020009000BF00BFFDF7F6FA009000BF53
:102C2000FDF762FD00BF2C4800882C4909888842C6
:102C30003EDA29480088401C274908802848008837
:102C40000988884203DA24480088254908802548F5
:102C50000068046023480068856022480068C660F8
:102C60002048006807821F480068C0F814901D487B
:102C70000068A0F818A01B480068C0F81CB01948EC
:102C80000068406817490860012017490881174803
:102C900008604860002000F08BFC1548007818B1EF
:102CA00013480078134908700020A8F8000008E0D5
:102CB00011480088401C1049088044F25360A8F86D
:102CC000000000BFFDF72AFD00BF0098FDF7A0FA45
:102CD00000BF00BFBDE8F88FA4000020285A0008FC
:102CE000A60000209C000020742A0020A0290020BB
:102CF000C6000020C8000020A80000203EB55948AA
:102D000000680068584A811A904279D00FDC574910
:102D1000084400283ED056490844A8B15549084403
:102D2000002860D05449084400286AD13FE0534845
:102D30000844002850D052490844002862D0514924
:102D400008440028F1D110E002A8464D00902D68FB
:102D5000EB69444D2D682A8B424D2D686969414DC0
:102D60002D68A868FFF780FD7AE002A93D48006859
:102D7000C0693C4DCDE900012D682B8B394D2D6884
:102D80002A8A384D2D68E968364D2D68A86800F00C
:102D90003FFC65E0334B1B68DA69324B1B68198BCB
:102DA000304B1B68986802AB00F0A0FE58E002A907
:102DB0002C480068C0692B4DCDE900012D682B8B94
:102DC000284D2D682A8A274D2D68E968254D2D68E4
:102DD000A86801F067FA43E022490968886802A9F7
:102DE00001F0A4FB3CE01F4B1B68DA691D4B1B681C
:102DF000198B1C4B1B68986802AB01F061FC2FE03B
:102E000007E02CE017490968886802A901F02CFF47
:102E100026E01D49097801EB41011C4A02EB8100C3
:102E200000F0CAFD0F48006802AB0021C2691848D3
:102E300001F046FC17480068401E16490860084625
:102E4000006858B9144800680860FDF7DBFC0446C8
:102E500002AB22460021114801F032FC00E000BF25
:102E600000BF3EBDA00000205449434BADBAB2BEE6
:102E70000DF90BFAF2F8F7FF0006F6FF00F7FDF781
:102E800000FFEFFF03FE0FFEC8000020742A0020A1
:102E9000BC2C00203401002030010020842D0020B3
:102EA000002700BF56E0002652E000BF00BFFDF73C
:102EB000ABF9074600BFFDF717FC00BF26480088A6
:102EC00098B90020254908810860486000F082FB1D
:102ED00000BFFDF723FC00BF3846FDF799F900BF9E
:102EE00000BFFEF75BF9012632E000BFFDF716FCDC
:102EF00000BF3846FDF78CF900BF00BFFDF782FC2C
:102F00000546FFF7FBFEFDF77DFC441B14480068F7
:102F1000A04201D21248046000BF00BFFDF774F95F
:102F2000074600BFFDF7E0FB00BF0E4800684068A1
:102F30000C49086008480088401E0749088000BF07
:102F4000FDF7ECFB00BF3846FDF762F900BF00BF9C
:102F5000002EAAD0A7E70000A4000020742A0020B9
:102F6000AC000020A0000020F0B589B0054600208C
:102F7000314908803148006820B944F25260288005
:102F800009B0F0BD2E480088022803DA44F25460EC
:102F90002880F5E700202B49086028480468264669
:102FA000203600270CE0284820600020A060E06068
:102FB000208260612083666020342036781C87B2CE
:102FC0001F4800888742EEDB203C1C48066866608C
:102FD0001E4806601E48066000201E4908801E49E3
:102FE00008801E48006818B944F255602880C7E779
:102FF0001B4800681B490968884203D244F25660A6
:103000002880BDE7032000210591CDE90705069141
:1030100013480068144A1268104B1B68CDE903017D
:10302000CDE9013200910B46104A11A11748FEF775
:10303000FDFB00BFA4E70000A8000020245A000800
:10304000285A0008AC0000204E4F4E459C0000203E
:10305000A0000020A4000020A6000020305A000894
:10306000385A0008705A0008345A0008A12E000887
:1030700075432F4F532D49494920495352205175CB
:10308000657565205461736B00000000A029002065
:103090000021034A1160034A11800180704700003B
:1030A000B8000020BC00002070B501461A4D2D6804
:1030B0001DB945F21E750D8070BD184D2D881DB9C6
:1030C00045F21D750D80F7E7134D28682A68103208
:1030D000124D2D886D1EACB2002308E00260002561
:1030E00045600581C560103010325D1CABB2A34253
:1030F000F4DB0025056045600581C560064D2D683F
:10310000074E3560054D2D88B5800025F580358149
:103110000D8000BFD0E70000545A00084C5A000848
:10312000682A002010B5014648894B89002B17DD1D
:103130000A680C4B1B6813600A4C4B6823602346DB
:10314000DB884C891B1B074CE38023469B884C89FA
:103150002344044CA38000234B818B810B604B6084
:1031600010BD0000682A0020018100224281828176
:1031700002604260704700002DE9F0410D46DDE934
:103180000674B0F80AC0B0F80880C44505DB46F202
:10319000935CA4F800C0BDE8F081DFF8DCC0BCF8A7
:1031A00004C0BCF1000F04D145F21D7CA4F800C09E
:1031B000F1E7DFF8C4C0DCF80010DFF8BC80D1F81C
:1031C00000C0C8F800C0C446BCF804C0ACF1010C93
:1031D000A8F804C0C446BCF806C00CF1010CA8F85D
:1031E00006C0C446BCF808C0B8F80680C44507DA73
:1031F000DFF884C0BCF806C0DFF87C80A8F808C0FF
:10320000B0F80AC0BCF1000F0AD1016041604FF074
:10321000010CA0F80AC04FF0000CC1F800C017E084
:1032200003F0100CBCF1000F07D10668316001609B
:103230004FF0000CC1F800C004E0D0F804C0C1F8A1
:1032400000C04160B0F80AC00CF1010CA0F80AC03F
:10325000B0F80CC0B0F80A80C44503DAB0F80AC070
:10326000A0F80CC04D600A81CF604FF0000CA4F8AC
:1032700000C000BF8FE70000682A00200021034A39
:103280001160034A1180018070470000C0000020D7
:10329000C40000202DE9F04105460C4616461F46A5
:1032A0001548006880F8346000201349096881F8E7
:1032B000350039461048006800F026FF6CB104F173
:1032C0000808EC60012229460B48006800F016F857
:1032D0002946404600F06BF806E0002006490968E0
:1032E000C88705490968086303480168204600F05B
:1032F00019F8BDE8F08100003801002010B5C28740
:10330000016300230AE000244C600C600C614C61F6
:103310000C83CC61886020315C1CA3B29342F2DB49
:1033200010BD000030B548B14568C1F8C45000F187
:103330000804226893681D6AC56113E091F834504F
:10334000022D02D0072D08D103E007A5C1F8C45013
:1033500007E007A5C1F8C45003E008A5C1F8C450B0
:1033600000BF00BF30BD00005461736B20510000EE
:103370005461736B2053656D000000002000000055
:1033800030B507A5C1F8C45000F1080422681AB18D
:1033900093681D6AC56101E001A5C56130BD0000EB
:1033A0002000000000210160416001817047F0B5FC
:1033B0008E6896F8375007893FB9012707810027A3
:1033C0004F600F600160416023E007897F1C078127
:1033D000026806E0946894F83770AF4200DD02E0BE
:1033E0005268002AF6D100BF32B900274F60436807
:1033F0000B60596041600CE017682FB9116000271D
:103400000F604A60016004E013680B604A60596015
:103410001160F0BD2DE9F0410446256BE68F0AE00E
:10342000D5F80C8008F108072946384600F00AF85C
:103430002035701E86B2002EF2DC0020E08720636B
:10344000BDE8F08110B50489012C03D1002404608B
:10345000446011E00C6824B94A68002414600260DA
:103460000AE04C6824B90B6800245C60436003E008
:103470000B684A685A6013600489641E0481002442
:103480004C600C6010BD2DE9F84306460C4617460B
:103490009846089D94F83600082850D2DFE800F0DE
:1034A0000405080906072B2C00BF00BF00BF47E03A
:1034B00000BF94F83400032807D143463A4621461A
:1034C0003046009500F03FF803E0E765A4F860801F
:1034D000256436B12046FFF79DFF21463046FFF7B1
:1034E0004FFF204601F014F800203434A0706070C3
:1034F00004F8340924E000BF94F83400032807D10D
:1035000043463A4621463046009500F01CF803E059
:10351000E765A4F860802564204601F05FFD36B1C0
:103520002046FFF777FF21463046FFF729FF0420AA
:103530003434A0700020607004F8340900E000BF4B
:1035400000BFBDE8F883F0B50446059E086BCD8F3B
:103550000AE0C768A74204D1046142610383C661DF
:1035600004E020306F1EBDB2002DF2DC00BFF0BDC4
:1035700070B50025074C03E005F12000C5B2241DFD
:1035800020680028F8D02068FCF749FE2844C5B21E
:10359000284670BD6C000020002004E00021034A92
:1035A00042F82010401C0028F8D070476C00002022
:1035B00030B5420900F01F030121C3F11F04A140EF
:1035C000034C54F822400C43014D45F8224030BDD5
:1035D0006C00002030B5420900F01F030121C3F147
:1035E0001F04A140034C54F822408C43014D45F880
:1035F000224030BD6C0000200021034A1160034AC4
:103600001180018070470000CC000020D000002015
:103610002DE9F04F85B007468A4693461C460020A8
:10362000029000BF00BF00BFFCF7EEFD029000BF9C
:10363000FDF75AF800BF56480078401C54490870FE
:1036400008460078012801D100F08AF900BFFDF793
:1036500065F800BF0298FCF7DBFD00BF00BF00BFAC
:1036600007F10806308900284CD104F0100010B989
:103670004FF0000801E04FF01008DDE90E0143466D
:103680005A46CDE90001514607F12000FFF774FDCD
:1036900000BF00BF00BFFCF7B7FD029000BFFDF701
:1036A00023F800BF3A480078401E394908700846A0
:1036B0000078D0B900F062F93648008800280BDDA8
:1036C00000BFFDF72BF800BF0298FCF7A1FD00BF7B
:1036D00000BF00F017F911E000BFFDF71FF800BFB1
:1036E0000298FCF795FD00BF08E000BFFDF716F853
:1036F00000BF0298FCF78CFD00BF00BF00BF05B003
:10370000BDE8F08F04F4007008B1358900E00125B0
:10371000D6F8009011E0D9F808000390D9F8040019
:1037200004900E985B465246009038460399FFF786
:10373000AAFEDDF81090681E85B2002DEBD100BF07
:1037400000BF00BFFCF760FD029000BFFCF7CCFF9C
:1037500000BF0F480078401E0D49087008460078E9
:1037600008B900F00BF900BFFCF7D8FF00BF0298C2
:10377000FCF74EFD00BF00BF00BF04F4004008B9D5
:10378000FDF70CFD00210F98018000BFB7E7000096
:10379000E0000020A400002000210AE001EB41022B
:1037A000054B03EB820000220281026042604A1C4A
:1037B000D1B22029F2D37047742A002010B50446F4
:1037C00094F83700FFF7F4FE94F8370005490978BC
:1037D000884203D1204600F027F802E0204600F09E
:1037E00003F810BDC600002010B590F8373003EB89
:1037F00043030C4C04EB83010B893BB901230B8180
:103800000023C36003610860486009E00B895B1C0A
:103810000B810B68C360002303610A6810610860B4
:1038200010BD0000742A002010B590F8373003EB6B
:1038300043030B4C04EB83010B893BB901230B8140
:103840000023C36003610860486008E00B895B1CCB
:103850000B810023C3604A680261D060486010BDDC
:10386000742A002010B501460C8924B1012C03D024
:10387000022C0CD101E000BF14E008684A68026124
:103880000024C4601461D0600A6048600AE00868DF
:103890004A68C36800241C61C4600261D0600B6088
:1038A000486000BF00BF10BD2DE9F041054695F806
:1038B000370000EB4000124901EB80042F69EE68ED
:1038C00087B946B9002020812060606095F83700F4
:1038D000FFF780FE0EE02089401E2081002030612D
:1038E000266007E02089401E2081FE600EB96760D7
:1038F00000E0376100202861E860BDE8F081000049
:10390000742A002010B5002400BFFCF77DFC04469B
:1039100000BF00200D4908700D480E490860084698
:103920000068D0F89000401C0968C1F890000A486F
:103930000068401C084908604FF080500749086043
:1039400000BF2046FCF764FC00BF10BDC70000208C
:10395000A02900203C0100200C01002004ED00E023
:1039600010B504480078012803D1FCF74BFF024949
:10397000086010BDE0000020D400002010B50A4807
:10398000007880B9FCF73EFF08490968441A0848E6
:103990000068A04201D20648046006480068A042C0
:1039A00001D20448046010BDE0000020D4000020D3
:1039B000D8000020DC00002070B505460026354800
:1039C0000078012800D070BD00BF00BFFCF71CFCD0
:1039D000064600BFFCF788FE00BF2C684CB900BF4C
:1039E000FCF79CFE00BF3046FCF712FC00BF00BF96
:1039F000E9E72948844209D100BFFCF78FFE00BFE8
:103A00003046FCF705FC00BF00BFDCE7A06D10B13D
:103A1000A06D401EA065A06D48B100BFFCF77EFE02
:103A200000BF3046FCF7F4FB00BF00BFCBE728899E
:103A3000022809DA00BFFCF771FE00BF3046FCF730
:103A4000E7FB00BF00BFBEE714480078002809DD8F
:103A500000BFFCF763FE00BF3046FCF7D9FB00BF98
:103A600000BFB0E72846FFF7FDFE2C68606D18B96F
:103A70000B480068A06501E0606DA06500BFFCF721
:103A80004DFE00BF3046FCF7C3FB00BF00BF00BFC8
:103A900099E70000E8000020D8280020E00000207E
:103AA000E400002009A1C1610021416108490968C1
:103AB00011B90021816105E0054909688161044966
:103AC0000968486102490860704700002000000052
:103AD000EC0000200021034A1160034A118001809C
:103AE00070470000EC000020F00000202DE9FF5F8F
:103AF0000446884691461D460020019000BF00BF45
:103B0000FCF782FB019000BFFCF7EEFD00BF04F163
:103B100008073889002857D10420012804D002283A
:103B200016D004283AD127E0206AFF280FD100BF21
:103B3000FCF7F4FD00BF0198FCF76AFB00BF00BF73
:103B400046F6C5502880002004B0BDE8F09F26E06E
:103B50004FF6FF71206A88420DD100BFFCF7DEFDF1
:103B600000BF0198FCF754FB00BF00BF46F6C550EC
:103B700028800020E8E712E0206A401C68B900BFF6
:103B8000FCF7CCFD00BF0198FCF742FB00BF00BF73
:103B900046F6C55028800020D6E700E000BF00BFF1
:103BA000206A401C2062D4F820A0C4F8249000BFF2
:103BB000FCF7B4FD00BF0198FCF72AFB00BF00BF73
:103BC000002028805046BFE700BF2D480078401CE9
:103BD0002B49087008460078012801D1FFF7C0FE84
:103BE00000BFFCF79BFD00BF0198FCF711FB00BF75
:103BF00000BF00BF08F4007008B13E8900E0012654
:103C0000D7F800B011E0DBF808000290DBF8040000
:103C1000039000231A46CDF8009020460299FFF742
:103C200032FCDDF80CB0701E86B2002EEBD1D4F859
:103C300020A000BF00BF00BFFCF7E6FA019000BF64
:103C4000FCF752FD00BF0E480078401E0C4908707A
:103C50000846007808B9FFF791FE00BFFCF75EFD4B
:103C600000BF0198FCF7D4FA00BF00BF00BF08F402
:103C7000004008B9FDF792FA00202880504663E71B
:103C8000E000002086B00020009000BF06E0D94987
:103C90000968480001AA0021FEF7FAFAD648007820
:103CA0000128F4D101A8FDF783FC0027D348006860
:103CB000D0490968884205D9D0480068CD490968CB
:103CC000B0FBF1F727B9CD4800680A21B0FBF1F746
:103CD0008EE1FCF797FD8246FCF7F0FCC8490860CE
:103CE00000BF00BFFCF790FA009000BFFCF7FCFC9F
:103CF00000BFC4480068C44908600020C14908608A
:103D000000BFFCF70BFD00BF0098FCF781FA00BF75
:103D100000BFBE480068BC490968884248D9BB4812
:103D20000068BB49884205D242F21070039001201E
:103D3000029023E0B5480068B649884205D24FF4A6
:103D40007A7003900A20029018E0B0480068B249E7
:103D5000884203D26420039002900FE0AB480068D1
:103D6000AE49884205D20A2003904FF47A7002903F
:103D700004E00120039042F210700290A348016811
:103D80000298B1FBF0F9A049039809684843B0FBD9
:103D9000F9F042F21071081AA1490880A148008880
:103DA0000988884208DA9E4800889E49088003E016
:103DB00042F210709A490880FDF72EFD002500BFE1
:103DC00000BFFCF721FA009000BFFCF78DFC00BF9C
:103DD0009548046800BFFCF7A1FC00BF0098FCF701
:103DE00017FA00BF00BF72E000BF00BF00BFFCF7C2
:103DF0000BFA009000BFFCF777FC00BF8B480078FF
:103E0000401C8A49087008460078012801D1FFF754
:103E1000A7FD00BFFCF782FC00BF0098FCF7F8F993
:103E200000BF00BF00BF54F89C0F6060002044F842
:103E30009C0900BF00BF00BFFCF7E6F9009000BF7F
:103E4000FCF752FC00BF79480078401E77490870A3
:103E500008460078D0B9FFF791FD75480088002822
:103E60000BDD00BFFCF75AFC00BF0098FCF7D0F94F
:103E700000BF00BFFFF746FD11E000BFFCF74EFC9E
:103E800000BF0098FCF7C4F900BF08E000BFFCF7D2
:103E900045FC00BF0098FCF7BBF900BF00BF00BFA6
:103EA000D4F8A000054400BF00BFFCF7ADF90090B6
:103EB00000BFFCF719FC00BFD4F8C04000BFFCF7FE
:103EC0002DFC00BF0098FCF7A3F900BF00BF002C39
:103ED0008AD145B34E48854205D242F21070059012
:103EE0004FF0010B1BE04B48854205D24FF47A702E
:103EF00005904FF00A0B12E04748854203D2642038
:103F0000059083460BE04548854204D20A2005907F
:103F10004FF47A7B03E00120059042F2107BB5FB61
:103F2000FBF0049003E0002005900120049000BF06
:103F300000BFFCF769F9009000BFFCF7D5FB00BF9C
:103F40003948046800BFFCF7E9FB00BF0098FCF7A4
:103F50005FF900BF00BF2FE0D4F8A00005994843E7
:103F60000499B0FBF1F086B242F21070864200D99B
:103F70000646A4F88C60B4F88E00B04201DAA4F8CA
:103F80008E6001AB04F1AC02111D2046FEF72CF847
:103F900000BF00BFFCF738F9009000BFFCF7A4FB9E
:103FA00000BFD4F8C04000BFFCF7B8FB00BF0098CA
:103FB000FCF72EF900BF00BF002CCDD11D480078C2
:103FC000012805D100201B49087001A8FDF7F0FA6F
:103FD000FCF718FCA0EB0A0817480068404502D21D
:103FE0001548C0F8008001AA00213846FEF750F9B4
:103FF0006FE600005C5A000804010020745A0008B3
:1040000094000020F800002000010020FC000020A7
:10401000801A060000093D00005A62020084D7178A
:10402000F4000020F600002010010020E000002035
:10403000A4000020F20000200801002010B58AB082
:10404000044600201F4908601F4908601F49086096
:104050001F4908701F4908701F48006820B946F6BC
:104060002B6020800AB010BD1C4800681C490968FC
:10407000884203D246F62C602080F3E71948007886
:104080001F2803D346F62A602080EBE70320002197
:104090000591CDE907040691084610490968124ABE
:1040A00012680D4B1B68CDE90132CDE903100D48B4
:1040B000007800230D4A0EA100901248FDF7B6FBD0
:1040C00000BFCFE7F800002000010020FC00002026
:1040D00004010020F2000020605A0008685A00081D
:1040E000705A0008585A0008645A0008853C0008B5
:1040F00075432F4F532D49494920537461742054FF
:1041000061736B00F42B002038B504460D4685B171
:104110006B4602222946204600F082FEBDF80000D0
:1041200018B9032084F8360006E0022084F836002F
:1041300002E0022084F836002046FFF7B5FB38BDC8
:104140000021C0F8BC100949096819B90021C0F85C
:10415000C01007E005490968C0F8C01003490968A4
:10416000C1F8BC0001490860704700001001002040
:10417000D0F8BC20D0F8C0104AB90D4B196011B16D
:104180000023C1F8BC300023C0F8C0300FE029B9CB
:104190000023C2F8C030C0F8BC3008E0C2F8C0103C
:1041A000C1F8BC200023C0F8C030C0F8BC30704754
:1041B000100100200021044A1160044A1180044AC1
:1041C00011600180704700001001002014010020E0
:1041D0000C01002070B5044600202060A0606060E3
:1041E000E06020616061A061E0612BA0206200209E
:1041F0006062A062E0622063E0872064E065A4F86A
:104200006000002104F16400FEF7AEFF002044F8D6
:10421000740F6060E060A0822061743C002506E0BD
:10422000002104F17C0040F82510681CC5B2002D67
:10423000F6D000203434206120676067606084F825
:104240005600E067A06720814FF0004060610020C9
:10425000A061E06120626062A4F85800A4F85A00EE
:10426000E0652066FCF7CEFA064666660020A0668A
:10427000C4F88000C4F8840020706070A070202012
:10428000E0700020C4F88800C4F88C0004A0C4F8D2
:104290009000343C70BD00003F5461736B0000001F
:1042A000200000002DE9FC4704460F469046994641
:1042B000DDE90A654FF0000A00BF00BF00BFFBF751
:1042C000A3FF824600BFFCF70FFA00BF8D480078BD
:1042D000401C8C49087008460078012801D1FFF77E
:1042E0003FFB00BFFCF71AFA00BF5046FBF790FFF8
:1042F00000BF00BF00BF0CB98348046800202880BD
:1043000094F8360008287CD2DFE800F0040548491C
:1043100006074A4B00BF00BF00BF4B464246394626
:1043200004F16400CDE90065FEF726FF00BF00BF81
:1043300000BFFBF769FF824600BFFCF7D5F900BF5D
:1043400070480078401E6F49087008460078D0B960
:10435000FFF714FB6D48008800280BDD00BFFCF759
:10436000DDF900BF5046FBF753FF00BF00BFFFF76A
:10437000C9FA11E000BFFCF7D1F900BF5046FBF7C6
:1043800047FF00BF08E000BFFCF7C8F900BF504678
:10439000FBF73EFF00BF00BF00BFAFE000BF00BFA4
:1043A00000BF94F8340002282CD143463A462146F7
:1043B00000200096FFF767F800BF00BF00BFFBF7C3
:1043C00023FF824600BFFCF78FF900BF4D480078FD
:1043D000401E4C4908700846007808B9FFF7CEFA2D
:1043E00000BFFCF79BF900BF5046FBF711FF00BF71
:1043F00000BF00BF09F40040002843D1FCF7CEFE07
:1044000040E040E04B464246394604F16400CDE9C5
:104410000065FEF7B1FE00BF00BF00BFFBF7F4FE72
:10442000824600BFFCF760F900BF36480078401EA6
:104430003449087008460078D0B9FFF79FFA33482E
:10444000008800280BDD00BFFCF768F900BF50466C
:10445000FBF7DEFE00BF00BFFFF754FA11E000BF1C
:10446000FCF75CF900BF5046FBF7D2FE00BF08E046
:1044700000BFFCF753F900BF5046FBF7C9FE00BF71
:1044800000BF00BF3AE000BF00BF00BFFBF7BCFEAB
:10449000824600BFFCF728F900BF1A480078401E8A
:1044A0001849087008460078D0B9FFF767FA17482E
:1044B000008800280BDD00BFFCF730F900BF504634
:1044C000FBF7A6FE00BF00BFFFF71CFA11E000BF1C
:1044D000FCF724F900BF5046FBF79AFE00BF08E046
:1044E00000BFFCF71BF900BF5046FBF791FE00BF71
:1044F00000BF00BF46F62D60288000BF00BFBDE8AA
:10450000FC870000E000002038010020A40000200B
:1045100010B50446204600F061FD94F8360000F026
:10452000040010B92046FFF749F910BD70B50446E4
:104530000D46002600BF00BFFBF766FE064600BF23
:10454000FCF7D2F800BF0020288094F83600082835
:104550007ED2DFE800F00405060714566A8000BF2B
:1045600000BF00BF00BFFCF7D9F800BF3046FBF723
:104570004FFE00BF00BF47F2531028808CE000BF01
:1045800048480078401C47490870084600780128D0
:1045900001D1FFF7E5F900BFFCF7C0F800BF3046D6
:1045A000FBF736FE00BF00BF00BF14F88A0F401EA5
:1045B000207014F88A0928B9002084F836002046B3
:1045C000FFF7A6FF00BF00BF00BFFBF71DFE0646BA
:1045D00000BFFCF789F800BF32480078401E31491F
:1045E00008700846007808B9FFF7C8F900BFFCF763
:1045F00095F800BF3046FBF70BFE00BF00BF00BFC1
:104600004AE014F88A0F401E207014F88A0910B985
:10461000012084F8360000BFFCF780F800BF304668
:10462000FBF7F6FD00BF00BF36E014F88A0F401E0E
:10463000207014F88A0910B9022084F8360000BFEF
:10464000FCF76CF800BF3046FBF7E2FD00BF00E06E
:1046500015E000BF20E014F88A0F401E207014F807
:104660008A0910B9032084F8360000BFFCF756F819
:1046700000BF3046FBF7CCFD00BF00BF0CE000BF21
:10468000FCF74CF800BF3046FBF7C2FD00BF00BF8F
:1046900046F62D60288070BD00BFFCF77FFD00BF8F
:1046A000F9E70000E000002008B504480068FDF7C5
:1046B00067FB69460020FDF70FFA08BD38010020AE
:1046C0002DE9F8430446884617461D464FF0000979
:1046D00000BF00BF00BFFBF797FD814600BFFCF79E
:1046E00003F800BFFB480078401CFA4908700846F0
:1046F0000078012801D1FFF733F900BFFCF70EF86D
:1047000000BF4846FBF784FD00BF00BF00BF0CB9E7
:10471000F148046827640020288094F836000828AF
:104720007AD2DFE800F00405FEFD0607FCFB00BFBF
:1047300000BF00BF0420012804D0022843D0042871
:104740006BD184E0606CFF283CD100BF00BF00BF8C
:10475000FBF75AFD814600BFFBF7C6FF00BFDD48EF
:104760000078401EDB49087008460078D0B9FFF792
:1047700005F9DA48008800280BDD00BFFBF7CEFF03
:1047800000BF4846FBF744FD00BF00BFFFF7BAF883
:1047900011E000BFFBF7C2FF00BF4846FBF738FD42
:1047A00000BF08E000BFFBF7B9FF00BF4846FBF7BA
:1047B0002FFD00BF00BF00BF46F6C5502880002077
:1047C000BDE8F88385E04FF6FF71606C88423DD10B
:1047D00000BF00BF00BFFBF717FD814600BFFBF71E
:1047E00083FF00BFBB480078401EBA4908700846E6
:1047F0000078E0B9FFF7C2F8B848008800280DDD5E
:1048000000BFFBF78BFF00BF4846FBF701FD00BF71
:1048100000BFFFF777F813E0E2E159E000BFFBF7D4
:104820007DFF00BF4846FBF7F3FC00BF08E000BF78
:10483000FBF774FF00BF4846FBF7EAFC00BF00BF70
:1048400000BF46F6C55028800020B9E741E0606C03
:10485000401CD8BB00BF00BF00BFFBF7D5FC8146A2
:1048600000BFFBF741FF00BF9A480078401E9949FE
:10487000087008460078D0B9FFF780F8974800889C
:1048800000280BDD00BFFBF749FF00BF4846FBF7E0
:10489000BFFC00BF00BFFFF735F811E000BFFBF71A
:1048A0003DFF00BF4846FBF7B3FC00BF08E000BF78
:1048B000FBF734FF00BF4846FBF7AAFC00BF00BF70
:1048C00000BF46F6C5502880002079E7FFE700E0EA
:1048D00000BF00BF606C401C6064666C00BF00BF1E
:1048E00000BFFBF791FC814600BFFBF7FDFE00BF58
:1048F00078480078401E7749087008460078F8B973
:10490000FFF73CF875480088002810DD00BFFBF772
:1049100005FF00BF4846FBF77BFC03E01EE01CE000
:104920001AE018E000BF00BFFEF7ECFF11E000BF87
:10493000FBF7F4FE00BF4846FBF76AFC00BF08E047
:1049400000BFFBF7EBFE00BF4846FBF761FC00BF72
:1049500000BF00BF80E100BF00BF00BF94F834007B
:1049600007282CD100231A46214618460097FEF747
:104970008AFD666C00BF00BF00BFFBF745FC8146A7
:1049800000BFFBF7B1FE00BF52480078401E5149FE
:1049900008700846007808B9FEF7F0FF00BFFBF783
:1049A000BDFE00BF4846FBF733FC00BF00BF00BFA1
:1049B00008F40040002801D1FCF7F0FB0FE10420CF
:1049C000012804D0022842D0042872D189E0606C0A
:1049D000FF283BD100BF00BF00BFFBF715FC81469D
:1049E00000BFFBF781FE00BF3A480078401E3949FE
:1049F000087008460078D0B9FEF7C0FF3748008835
:104A000000280BDD00BFFBF789FE00BF4846FBF71F
:104A1000FFFB00BF00BFFEF775FF11E000BFFBF713
:104A20007DFE00BF4846FBF7F3FB00BF08E000BF78
:104A3000FBF774FE00BF4846FBF7EAFB00BF00BF70
:104A400000BF46F6C55028800020B9E68BE04FF63F
:104A5000FF71606C884243D100BF00BF00BFFBF70D
:104A6000D3FB814600BFFBF73FFE00BF194800782B
:104A7000401E1849087008460078D8B9FEF77EFF36
:104A80001648008800280BDD00BFFBF747FE00BF7B
:104A90004846FBF7BDFB00BF00BFFEF733FF12E047
:104AA00000BFFBF73BFE00BF4846FBF7B1FB00BF72
:104AB00009E057E000BFFBF731FE00BF4846FBF7B7
:104AC000A7FB00BF00BF00BF46F6C55028800020EE
:104AD00076E60000E000002038010020A40000205D
:104AE00041E0606C401CD8BB00BF00BF00BFFBF7BB
:104AF0008BFB814600BFFBF7F7FD00BF58480078ED
:104B0000401E5749087008460078D0B9FEF736FFB6
:104B10005448008800280BDD00BFFBF7FFFD00BFF5
:104B20004846FBF775FB00BF00BFFEF7EBFE11E048
:104B300000BFFBF7F3FD00BF4846FBF769FB00BF72
:104B400008E000BFFBF7EAFD00BF4846FBF760FB4B
:104B500000BF00BF00BF46F6C550288000202FE6EA
:104B6000FFE700E000BF00BF606C401C6064666C43
:104B700000BF00BF00BFFBF747FB814600BFFBF74C
:104B8000B3FD00BF36480078401E3549087008461E
:104B90000078D0B9FEF7F2FE3248008800280BDD1D
:104BA00000BFFBF7BBFD00BF4846FBF731FB00BF72
:104BB00000BFFEF7A7FE11E000BFFBF7AFFD00BF8F
:104BC0004846FBF725FB00BF08E000BFFBF7A6FD4A
:104BD00000BF4846FBF71CFB00BF00BF00BF3BE027
:104BE00000BF00BF00BFFBF70FFB814600BFFBF714
:104BF0007BFD00BF1A480078401E1949087008461E
:104C00000078D0B9FEF7BAFE1648008800280BDD00
:104C100000BFFBF783FD00BF4846FBF7F9FA00BF72
:104C200000BFFEF76FFE11E000BFFBF777FD00BF8E
:104C30004846FBF7EDFA00BF08E000BFFBF76EFD4A
:104C400000BF4846FBF7E4FA00BF00BF00BF46F6CE
:104C50002D602880002600BF00BF3046B0E5000070
:104C6000E0000020A400002070B504460D46002698
:104C700000BF00BFFBF7C8FA064600BFFBF734FDD4
:104C800000BF0CB95A48046859480068844210D1E2
:104C90005848007800280CDD00BFFBF73FFD00BF3F
:104CA0003046FBF7B5FA00BF00BF46F663502880D8
:104CB00070BD0020288094F83600082873D2DFE801
:104CC00000F0044252627374757600BF4948007860
:104CD000401C4849087008460078012801D1FEF7B9
:104CE0003FFE00BFFBF71AFD00BF3046FBF790FA0E
:104CF00000BF00BF00BF042084F83600012084F804
:104D00008A002046FEF7D0FD00BF00BF00BFFBF7C2
:104D10007BFA064600BFFBF7E7FC00BF354800788A
:104D2000401E344908700846007808B9FEF726FE90
:104D300000BFFBF7F3FC00BF3046FBF769FA00BF8A
:104D400000BF00BF4FE0052084F83600012084F842
:104D50008A0000BFFBF7E2FC00BF3046FBF758FAC1
:104D600000BF00BF3FE0062084F83600012084F831
:104D70008A0000BFFBF7D2FC00BF3046FBF748FAC1
:104D800000BF00BF2FE0072084F83600012084F820
:104D90008A0000BFFBF7C2FC00BF3046FBF738FAC1
:104DA00000BF00BF1FE011E000BF00BF00BF94F8CC
:104DB0008A00401C84F88A0000BFFBF7AFFC00BFEC
:104DC0003046FBF725FA00BF00BF0CE000BFFBF741
:104DD000A5FC00BF3046FBF71BFA00BF00BF46F63C
:104DE0002D60288064E700BFFCF7D8F900BF5FE7BB
:104DF00038010020E0000020002108E0064A02EB14
:104E0000C100002202608280C2804A1C91B2034A23
:104E100012889142F2DB7047C82500208C5A0008A6
:104E20002DE9F04F0C4616461D46042E1ED1DFF824
:104E3000A091D9F80090A4EB0909A9F1010313F599
:104E4000803F0DD94FF00009C0F84C90C0F8509049
:104E5000C0F81C9047F27E29A5F80090BDE8F08FBD
:104E6000C46403F10109C0F850903FE084B3082EF8
:104E700025D1D0F8489009EB0407DFF85491D9F810
:104E80000090A7EB0909A9F10103A34201D2C7646D
:104E900006E0DFF83C91D9F80090A144C0F84C90AE
:104EA000DFF82CA1D0F84C90DAF800A0A9EB0A09A1
:104EB000C0F85090D0F84C90C0F8489016E0DFF859
:104EC0001091D9F80090A144C0F84C9004650DE011
:104ED000FFE74FF00009C0F84C90C0F85090C0F8C0
:104EE0001C9047F27E29A5F80090B7E7DFF8E4A010
:104EF000BAF800A0D0F84C90B9FBFAFB0AFB1B995A
:104F00001FFA89F8DFF8D09009EBC802B2F80490D4
:104F1000B9F1000F0BD14FF00009C0F81490C0F8A0
:104F2000189010604FF00109A2F804903EE011685B
:104F300034E0DFF89CA0D1F84C90DAF800A0A9EB9F
:104F40000A09C1F85090D0F85090D1F850A0D1453E
:104F50000ED9D1F81490B9F1000F01D049691DE0C4
:104F60004FF00009C0F8149081614861002115E0FC
:104F7000D1F81890B9F1000F07D14FF00009C0F82F
:104F8000189041618861106007E0D1F818C0C0F83E
:104F900018C04161CCF81400886100210029C8D1F3
:104FA000B2F8049009F10109A2F80490B2F8069051
:104FB000B2F804A0D14503DAB2F80490A2F8069042
:104FC000C2614FF00009A5F8009000BF46E700005D
:104FD000180100208C5A0008C825002010B5C269AD
:104FE000BAB1002404651468844205D14169116096
:104FF00039B100248C6104E0816943694B6103B1DC
:105000009961002444618461C461C4649488641E0D
:10501000948010BD002006E0054A02EBC00100228A
:10502000CA80421C90B2034A12889042F4DB704757
:10503000C82500208C5A00082DE9F05F4FF0000BC6
:1050400000BF00BF00BFFBF7DFF8834600BFFBF7E0
:105050004BFB00BF7A480078401C7949087008462D
:105060000078012801D1FEF77BFC00BFFBF756FB5F
:1050700000BF5846FBF7CCF800BF00BF00BFFBF7EE
:10508000C1FB05466F480068401C6E490860084631
:1050900000686D490988B0FBF1F201FB12001FFAAC
:1050A00080FA6A4800EBCA08D8F80040002782E07E
:1050B000002C7FD0D4F8149094F83600082875D2CC
:1050C000DFE800F00408051B063D075000BF00BFE5
:1050D00000BF6CE05B49E06C0968401A20655949E3
:1050E000E06C0968884206D1002084F8360020462A
:1050F000FFF70EFA00E0012759E05249E06C096819
:10510000401A20654F49E06C0968884215D100209B
:10511000E065A4F86000FBF775FB20642046FEF70D
:1051200079F92046FFF7F4F900203434A070032009
:105130006070002004F8340900E0012737E041499D
:10514000E06C0968401A20653E49E06C09688842B5
:1051500006D1042084F836002046FFF73FFF00E028
:10516000012724E03749E06C0968401A2065354979
:10517000E06C0968884217D10020E065A4F860005F
:10518000FBF740FB20642046FEF744F92046FFF77A
:1051900025FF04203434A07003206070002004F840
:1051A000340902E006E001E0012700E000BF00BF93
:1051B0004C4600E00127002F3FF47AAFFBF722FBBB
:1051C000461B23480068B04201D22148066000BF58
:1051D00000BF00BFFBF718F8834600BFFBF784FA57
:1051E00000BF17480078401E15490870084600782F
:1051F000D0B9FEF7C3FB1748008800280BDD00BFBD
:10520000FBF78CFA00BF5846FBF702F800BF00BF5F
:10521000FEF778FB11E000BFFBF780FA00BF5846AD
:10522000FAF7F6FF00BF08E000BFFBF777FA00BF10
:105230005846FAF7EDFF00BF00BF00BFBDE8F09F82
:10524000E0000020180100208C5A0008C82500202A
:105250001C010020A40000201CB500BF0EE001AB23
:105260006A4600210846FCF797FDBDF8040028B9FE
:1052700003480078012801D1FFF7DEFEEFE70000C8
:105280009800002010B58AB0044600201D4908602F
:105290001D490860FFF7B0FD1C48006820B947F2BF
:1052A000122020800AB010BD194800681949096809
:1052B000884203D247F213202080F3E71648007893
:1052C0001F2803D347F211202080EBE70B20002199
:1052D00005910A46CDE9070406910D4800680F497B
:1052E00009680A4B1B68CDE90131CDE903020A4880
:1052F000007800230A4A0BA100900F48FCF796FAA9
:1053000000BFCFE7180100201C0100207C5A0008D4
:10531000845A0008705A0008785A0008805A000819
:105320005952000875432F4F532D4949492054695C
:10533000636B205461736B00BC2C002070B58AB085
:1053400004460020314908603148006840B13148C6
:1053500000682F490968B0FBF1F02F49086006E0AA
:105360002C4800680A21B0FBF1F02B4908602A485C
:1053700000682A4908600020294908602949086016
:10538000002508E0284800EBC5060020B080F0802A
:105390003060681C85B2254800888542F2DB2448CD
:1053A000006820B947F2473020800AB070BD21481C
:1053B000006821490968884203D247F248302080BA
:1053C000F3E71E4800781F2803D347F246302080B9
:1053D000EBE70B2000210591CDE907040691084673
:1053E00014490968164A1268114B1B68CDE901324D
:1053F000CDE90310114800780023124A12A1009051
:105400001748FCF713FA00BFCFE700002001002087
:10541000985A0008745A0008300100203401002016
:105420002C0100202801002050280020AC5A000840
:105430009C5A0008A45A0008705A0008945A0008A0
:10544000A05A00085955000875432F4F532D49495C
:10545000492054696D6572205461736B000000002F
:10546000842D0020F0B50C46022680F82A60012C1D
:1054700005D12D4F466A3F683E4486610CE0066ABE
:105480002EB9294F466A3F683E44866104E0264FA4
:10549000066A3F683E448661244F3F888669B6FBB2
:1054A000F7FC07FB1C66B5B2214E06EBC502166879
:1054B00036B90026066146611060012696802CE010
:1054C000194F86693F68F61BC661116820E0164FC8
:1054D0008E693F68F61BCE61C669CF69BE4209D9A5
:1054E0000E690EB1096913E0002606614161086189
:1054F00000210DE04E692EB9002646610161486128
:10550000106004E04B69436101611861486100214A
:105510000029DCD19688761C9680D6889788BE4272
:1055200001DA9688D680F0BD2C010020AC5A000824
:1055300050280020002006E0054A02EBC0010022AE
:10554000CA80421C90B2034A12889042F4DB704732
:1055500050280020AC5A00081CB500BF53E001AB36
:105560006A4600210846FCF717FC01A8FBF76AFE13
:10557000FBF748F9064624480068401C22490860A9
:105580000846006821490988B0FBF1F201FB1200CE
:105590001FFA80FA1E4800EBCA08D8F800404FF006
:1055A000000B21E0F4B1D4F810901749A069096804
:1055B000884214D1204600F02FF8208D022804D113
:1055C00001212046FFF74EFF02E0032084F82A0065
:1055D000A56815B12046E168A8474C4604E04FF0A5
:1055E000010B01E04FF0010BBBF1000FDAD0FBF72C
:1055F00009F9871B01A8FBF799FE06480068B84225
:1056000001D204480760AAE72C010020AC5A000828
:105610005028002028010020F0B5114E36888569F9
:10562000B5FBF6F706FB1755ACB20E4D05EBC40201
:105630001568854205D10169116039B100254D61B8
:1056400004E0416903690B6103B15961012580F8E8
:105650002A5000250561456195886D1E9580F0BD35
:10566000AC5A00085028002029B1064A926902432A
:10567000044B9A6104E0034A92698243014B9A61A8
:10568000704700000010024030B5002100220024C5
:1056900000232D4D6D6805F00C0121B1042905D0C2
:1056A000082923D105E0294D056022E0274D05603A
:1056B0001FE0254D6D6805F47012234D6D6805F4EB
:1056C0008034022505EB92421CB9214D55430560FB
:1056D0000BE01D4D6D6805F400351DB11C4D5543A3
:1056E000056002E0194D5543056002E0174D056065
:1056F00000BF00BF144D6D6805F0F0010909154D9C
:105700006B5C0568DD4045600F4D6D6805F4E06138
:10571000090A104D6B5C4568DD4085600A4D6D6877
:1057200005F46051C90A0B4D6B5C4568DD40C560EE
:10573000054D6D6805F44041890B074D6B5CC568EC
:10574000B5FBF3F5056130BD0010024000127A0090
:1057500000093D0036000020460000207047000090
:1057600010B5002400BF00BFFAF74EFD044600BF8D
:10577000FAF7BAFF00BF09480078401C07490870D3
:1057800000BFFAF7CBFF00BF2046FAF741FD00BF8C
:1057900000BFFCF73FFFFBF78FFC10BD900000201F
:1057A00008B5FBF773FC40F225512E4800F077F85E
:1057B000E0B140F225512B4800F062F8294800F092
:1057C000BDF82949294A1278885428480078401C95
:1057D0002649087008460078042807DB0020087076
:1057E0006A464FF400712248FBF762FE40F22771CF
:1057F0001C4800F054F808B31E480078401C1D49AE
:105800000870084600781C490978884207DA1B4866
:10581000184A1278815C134800F095F80EE00020D9
:1058200014490870002240F227710E4800F061F818
:10583000012240F226610B4800F05BF840F226613D
:10584000084800F02CF850B140F22661054800F0FD
:1058500017F8002240F22661024800F04AF8FBF7F0
:105860002BFC08BD00380140C005002000000020CE
:10587000101400200100002002000020040000207D
:1058800010B50022002340F66A14A14200D100BFE7
:105890000A1201249440A3B2DC43048010BD70B509
:1058A0000246002400230025002040F66A16B1427B
:1058B00000D100BFC1F3421501F01F03012606FA13
:1058C00003F3012D02D19689334006E0022D02D167
:1058D000168A334001E0968A33400C12012606FAFC
:1058E00004F41688344013B10CB1012000E000200C
:1058F00070BDF0B50346002400260025002040F6C8
:105900006A17B94200D100BF1846C1F3421401F032
:105910001F06012707FA06F5012C01D10C3004E01F
:10592000022C01D1103000E014301AB107682F4367
:10593000076002E00768AF430760F0BD0146888852
:10594000C0F308007047C1F30802828070477047B7
:1059500000BFFEE710B504464FF47A7104FB01F076
:1059600000F002F810BD000030B585B0044668466E
:10597000FFF78AFE0C490198B0FBF1F0C5B205FBB8
:1059800004F04FF0E02148610520086100BF4FF0AE
:10599000E020006900F480300028F8D004204FF0A7
:1059A000E021086105B030BD40420F0000B58BB06A
:1059B0004FF4A060FBF790F80AA8FBF785FA0AA855
:1059C000032100220592CDE90621089005208021BF
:1059D0000C22094BCDE90132CDE90310032000234D
:1059E000064A07A100900A48FBF720FF0AA8FBF728
:1059F000ABFD00200BB000BDBC0600203D0400083C
:105A0000417070205461736B205374617274000094
:105A1000F4050020481400200C0000008000000065
:105A200000020000481600200A00000040010000AB
:105A3000881700200C000000800000000002000019
:105A400088190020800000000002000064000000AF
:105A500040060000881B00200B0000000A00000028
:105A6000C82100200C00000080000000000200009F
:105A700040000000E80300000A000000C8230020E6
:105A80000C00000080000000000200001100000077
:105A9000880000000B0000000A00000050260020D3
:105AA0000C00000080000000000200001100000057
:105AB00088000000901400000101010078563412A3
:105AC00001010000000000000000000000000000D4
:105AD00000000000000000000000000000000000C6
